{
  "contractName": "RoleToken",
  "abi": [
    {
      "constant": true,
      "inputs": [],
      "name": "totalSupply",
      "outputs": [
        {
          "name": "",
          "type": "uint256"
        }
      ],
      "payable": false,
      "stateMutability": "view",
      "type": "function"
    },
    {
      "inputs": [],
      "payable": false,
      "stateMutability": "nonpayable",
      "type": "constructor"
    }
  ],
  "bytecode": "0x608060405234801561001057600080fd5b50620186a0600081905550609e806100296000396000f300608060405260043610603f576000357c0100000000000000000000000000000000000000000000000000000000900463ffffffff16806318160ddd146044575b600080fd5b348015604f57600080fd5b506056606c565b6040518082815260200191505060405180910390f35b600054815600a165627a7a723058201ee7978d9e58f06ddf7ad21f30cd95d1e0a180c1d463bb89c6b523ca93387dd90029",
  "source": "pragma solidity >=0.4.0 < 0.6.0;\n\ncontract RoleToken {\n  //Constructor\n  //Set the total number of tokens\n  //Read the total number of tokens\n  uint public totalSupply;\n  \n  constructor () public {\n    totalSupply = 100000;\n  }\n}\n",
  "sourcePath": "/home/role/BSD/dApps/Learn/RoleToken/token_sale/contracts/RoleToken.sol",
  "compiler": {
    "name": "solc",
    "version": "0.4.24+commit.e67f0147.Emscripten.clang"
  },
  "schemaVersion": "2.0.1",
  "updatedAt": "2018-12-13T21:45:20.904Z"
}